:10000000020D68BB010CE58229F582E5833AF58390
:10001000E0225006E92582F8E622BBFE06E92582A9
:10002000F8E222E58229F582E5833AF583E493221A
:10003000EF8DF0A4A8F0CF8CF0A428CE8DF0A42EE4
:10004000FE22C2D5EC30E709B2D5E4C39DFDE49CA5
:10005000FCEE30E715B2D5E4C39FFFE49EFE12002C
:10006000B7C3E49DFDE49CFC80031200B730D507C4
:10007000C3E49FFFE49EFE22D083D082F8E4937015
:1000800012740193700DA3A393F8740193F5828801
:1000900083E4737402936860EFA3A3A380DFBB01C2
:1000A0000689828A83E0225002E722BBFE02E32215
:1000B00089828A83E49322BC000BBE0029EF8DF075
:1000C00084FFADF022E4CCF875F008EF2FFFEE339B
:1000D000FEEC33FCEE9DEC984005FCEE9DFE0FD54A
:1000E000F0E9E4CEFD22EDF8F5F0EE8420D21CFE1E
:1000F000ADF075F008EF2FFFED33FD400798500687
:10010000D5F0F222C398FD0FD5F0EA22C290D29129
:10011000D292D2932094091203813094FD7F37222A
:100120002095091203813095FD7F3822209609120F
:1001300003813096FD7F3922209709120381309781
:10014000FD7F2F22D290C291D292D2932094091295
:1001500003813094FD7F342220950912038130956C
:10016000FD7F35222096091203813096FD7F3622CD
:100170002097091203813097FD7F7822D290D29187
:10018000C292D2932094091203813094FD7F3122D0
:100190002095091203813095FD7F322220960912A5
:1001A00003813096FD7F3322209709120381309717
:1001B000FD7F2D22D290D291D292C2932094091227
:1001C00003813094FD7F43222095091203813095ED
:1001D000FD7F30222096091203813096FD7F3D225B
:1001E0002097091203813097FD7F2B227F6E2274A6
:1001F0000F2528F8E6FFEF120078021F30022331A6
:10020000022832022D33023234023735023C3602E4
:100210004137024638024B3902504300000255E490
:10022000FEFF227E007F01227E007F02227E007F71
:1002300003227E007F04227E007F05227E007F064F
:10024000227E007F07227E007F08227E007F092217
:1002500012039D8006E4FFFE12035E7E007F0D22E6
:100260007F987E3A1203857F307E001203A17F942F
:100270007E111203857F307E001203A17F2C7E0148
:100280001203857F301E1203A17F8A7E021203852E
:100290007F387E001203A17F0C7E001203A112039F
:1002A0009D7F067E000203A1AB07AA06E4F52BF9A9
:1002B000C3EA6480948050107CFF7DFF120030AA56
:1002C00006AB077F2D1203C87C007D0AAF03AE0288
:1002D000120042A907E960062430FF1203C8E9753D
:1002E000F00AA4FEC3EB9EF52B2430FF0203C88B5B
:1002F0002B8A2C892DE4F52EF52FAB2BAA2CA92DBA
:100300001203B3C3E52F9FE52E9E501DAB2BAA2CE5
:10031000A92D852F82852E83120003FF1203C805A5
:100320002FE52F70D5052E80D10203DA8F30E5300E
:10033000B4430612039D7F6522E530642B601CE503
:1003400030642D6016E53064786010E530642F600D
:100350000A7F017E0012035E7F6522AF3022AB0769
:10036000AA0612039DEA7005EB1460030480087B63
:10037000FF7A04790A80067BFF7A0379FE1202EF86
:10038000227F107E27E4FDFCC3ED9FEE6480F8EC35
:1003900064809850070DBD00010C80EC227F017E27
:1003A00000C2B78FA0D2B67F967E00120385C2B678
:1003B000020385E4FFFE12009E600C0FEF70010E39
:1003C00009E970F20A80EF22D2B78FA0D2B67F96E9
:1003D0007E00120385C2B60203857F027E001203EF
:1003E000A17FDC7E05020385E4F5807590F0F5A021
:1003F000F5B0227F6EBF6E0512010C80F822577295
:100400006F6E6720496E7075740057726F6E67204B
:0904100046756E6374696F6E009D
:10080000E4F50AF50B750C2BF50DF50EF523F52423
:100810001203E81202601203F38F08E508643D60DA
:1008200021E5086443601BAF24740F2FF8A60874F9
:100830000F2FF8E6FF1203C80524E52470D805231E
:1008400080D4E508B4430812039D1203DA80C7E59B
:1008500008B43DC2FF1203C87FE87E031203857F00
:10086000C07E001203A1E4F525F526D3E5269524E4
:10087000E5236480F8E525648098400302092D741F
:100880000F2526F8E6FF642B6012EF642D600DEF54
:1008900064786008EF642F6003020922E4F527F50D
:1008A00028C3E5289526E5256480F8E52764809827
:1008B00050261201EF8E298F2AAE0AAF0B7C007DE5
:1008C0000A120030E52A2FF50BE5293EF50A052826
:1008D000E52870CD052780C9740F2526F8E6F509AF
:1008E000E5262401F528E43525F527C3E5289524D8
:1008F000E5236480F8E52764809850311201EF8E7B
:10090000298F2AAE0DAF0E7C007D0A120030E52A39
:100910002FF50EE5293EF50D0528E52870CD0527B4
:1009200080C90526E5267002052502086B7FB87E82
:1009300088120385E50924D3601724FE602D24B7AF
:10094000601C244D7033E50B250EFFE50A350D8044
:100950000AC3E50B950EFFE50A950DFE8018AC0D58
:10096000AD0EAE0AAF0B120030800BAC0DAD0EAE6B
:100970000AAF0B1200421202A81203F3BF43031284
:0309800003DA2275
:0C0D6800787FE4F6D8FD758130020800A9
:00000001FF
