:10000000021766E4F523F52475252BF526F527F56B
:1000100044F545120EFF120DA7120F0A8F21E5219C
:10002000643D6021E5216443601BAF4574302FF8C7
:10003000A62174302FF8E6FF120ED20545E5457073
:10004000D8054480D4E521B44308120EA7120EE46B
:1000500080C7E521B43DC2FF120ED27FE87E0312B5
:100060000E8F7FC07E00120EABE4F546F547D3E558
:10007000479545E5446480F8E5466480984003026E
:10008000013074302547F8E6FF642B6012EF642DD1
:10009000600DEF64786008EF642F6003020125E4CF
:1000A000F548F549C3E5499547E5466480F8E548D4
:1000B000648098502612074F8E4A8F4BAE23AF2490
:1000C0007C007D0A120C9DE54B2FF524E54A3EF598
:1000D000230549E54970CD054880C974302547F8A6
:1000E000E6F522E5472401F549E43546F548C3E540
:1000F000499545E5446480F8E5486480985031129C
:10010000074F8E4A8F4BAE26AF277C007D0A120C1C
:100110009DE54B2FF527E54A3EF5260549E5497053
:10012000CD054880C90547E5477002054602006EC7
:10013000AC23AD24EC120B1C8F2B8E2A8D298C281E
:10014000AC26AD27EC120B1C8F2F8E2E8D2D8C2CF8
:100150007FB87E88120E8FE52224D3601724FE60BC
:100160003524B7601C244D7048E5242527FDE52380
:100170003526800AC3E5249527FDE5239526FC80D6
:1001800010AC26AD27AE23AF24120C9DAC06AD07F4
:10019000EC120B1C8013AB2FAA2EA92DA82CAF2B71
:1001A000AE2AAD29AC28120A018F0B8E0A8D098C5C
:1001B00008AF0BAE0AAD09AC087B007A00790C756C
:1001C0005300755404120307120F0ABF4303120EA3
:1001D000E4223E9248DA3ECCCCCD3F2AAAAB400086
:1001E00000003F8000003F9837F03FB504F33FD751
:1001F00044FC3E3172173EB172173F0515913EDE49
:100200005BD9D2008002C200EDD2E7F8CD33EC33E7
:1002100004700BBD800592D5020BCB020BC140FBD5
:10022000D31460F2F5F07C3FEE7A00C39496C89444
:100230008B40230AC89469C8941A401A0AC8946863
:10024000C8941F40110AC8945AC89425400805F064
:100250007A00CDC2E7CDC0F08C678D688E698F6A59
:10026000EA2323C0E024E2F582E43401F583120D91
:1002700003120807ECC0E0EDC0E0EEC0E0EFC0E024
:10028000120CF3A867A968AA69AB6A120803D0E048
:10029000FBD0E0FAD0E0F9D0E0B2E7F8120A018C26
:1002A000678D688E698F6A9001D27403120C01A861
:1002B00067A968AA69AB6A1208F8D0E0600F24EE5B
:1002C000F582E43401F583120D031208078C678D63
:1002D000688E698F6AD0E0C3947FFDE49400FC12BD
:1002E0000B1C7B187A727931783F1208F8A867A93D
:1002F00068AA69AB6A12080730000B7BD97A5B7970
:10030000DE783E1208F8228F4F8E4E8D4D8C4C8B2E
:10031000508A518952E4FFFEFDFCAB4FAA4EA94D15
:10032000A84C120A9E50187F2D120ED2AF4FAE4E1F
:10033000AD4DAC4C120EF28F4F8E4E8D4D8C4CAF9E
:100340004FAE4EAD4DAC4C120B558E558F56AC5535
:10035000AD56EC120B1CA804A905AA06AB07AF4FBB
:10036000AE4EAD4DAC4C1208038F5C8E5B8D5A8C3B
:1003700059AB50AA51A952E4F562F563AF56AE5598
:100380001206188E578F58E5544553605CAB50AA3F
:1003900051A9528F828E83742E120C7BAC53AD54B4
:1003A000EC120B1C8F648E638D628C617F007E006B
:1003B0007D207C4112041EAB5CAA5BA95AA859128D
:1003C00008F88F5C8E5B8D5A8C59120B55AB50E53B
:1003D000522558F9E5513557FAE92401F9E43AFA7A
:1003E000855362855463120618E4F557F558AB50EF
:1003F000AA51A952120EBDC3E5589FE5579E501D44
:10040000AB50AA51A952855882855783120C4EFFD2
:10041000120ED20558E5587002055780D1228F6020
:100420008E5F8D5E8C5DE4FFFE7D807C3FAB60AABD
:100430005FA95EA85D120A9E7009AF60AE5FAD5EF7
:10044000AC5D22AF60AE5FAD5EAC5D120BD6FBAFB4
:1004500064AE63AD62AC61120BD6FFBF0108E4FF6E
:10046000FE7D807C3F22EF64046022EB6404601D0B
:10047000BB0127E4FFFEFDFCAB64AA63A962A8618F
:10048000120A9E60084006E4FFFEFDFC2274FFF5A0
:1004900064F563F562F56102052CE4F565F566FF28
:1004A000FEFDFCAB60AA5FA95EA85D120A9E504BE0
:1004B000AF64AE63AD62AC61120B558E658F66ACF6
:1004C00065AD66EC120B1CC8ECC8C9EDC9CAEECA12
:1004D000CBEFCBAF64AE63AD62AC61120803E4FB5B
:1004E000FAF9F8120A9E70A5AF60AE5FAD5EAC5D22
:1004F000120BF08F608E5F8D5E8C5DAF60AE5FAD76
:100500005EAC5D120206AB64AA63A962A861120820
:10051000F81206ED8F648E638D628C61E56630E0C3
:100520000B120BF08F648E638D628C61AF64AE63CF
:10053000AD62AC6122C290D291D292D29320940942
:10054000120E8B3094FD7F3722209509120E8B30CE
:1005500095FD7F3822209609120E8B3096FD7F394B
:1005600022209709120E8B3097FD7F2F22D290C246
:1005700091D292D293209409120E8B3094FD7F3445
:1005800022209509120E8B3095FD7F352220960989
:10059000120E8B3096FD7F3622209709120E8B307B
:1005A00097FD7F7822D290D291C292D29320940963
:1005B000120E8B3094FD7F3122209509120E8B3064
:1005C00095FD7F3222209609120E8B3096FD7F33E7
:1005D00022209709120E8B3097FD7F2D22D290D2C8
:1005E00091D292C293209409120E8B3094FD7F43D6
:1005F00022209509120E8B3095FD7F30222096091E
:10060000120E8B3096FD7F3D22209709120E8B3003
:1006100097FD7F2B227F6E228E5D8F5E8B5F8A60BF
:100620008961E4F564F565E55E455D6039AE5DAF11
:100630005E7C007D0A120CAFED2430FFAB5FAA6038
:10064000A9610565E565AC647002056414F5828CEA
:1006500083EF120C7BAE5DAF5E7C007D0A120CAFA7
:100660008E5D8F5E80C1C3E5659563E5626480F849
:10067000E564648098501CAB5FAA60A9610565E5DC
:1006800065AE647002056414F5828E837430120CBA
:100690007B80D3AB5FAA60A961AD65AC64121564C1
:1006A000AB5FAA60A961856582856483E4120C7BD7
:1006B000AE64AF652233DA929E35B16011377FE5C3
:1006C000FE392184893AAEC3FF3C1D955B3D6358DA
:1006D000473E75FDF03F3172183F800000C2D502E1
:1006E0000BCB020BC1BD80FA50F3020BC8ED33EC0B
:1006F000330460F17B3B7AAA79B8783F1208F8EDB1
:1007000033EC3392D5247B5011A2D570DB500BED26
:10071000448024045004A2D580CEEFFBEEFAEDF91C
:10072000ECF8120B55EFF582F404FC120B211208C1
:1007300007C0829006B57409120C10ED33CC33D08B
:10074000F092D525F0A2D57001C313CC13FD22740D
:10075000302549F8E6FFEF120D13077F300783318C
:10076000078832078D33079234079735079C360781
:10077000A13707A63807AB3907B043000007B5E437
:10078000FEFF227E007F01227E007F02227E007F0C
:1007900003227E007F04227E007F05227E007F06EA
:1007A000227E007F07227E007F08227E007F0922B2
:1007B000120EA78006E4FFFE120E687E007F0D2257
:1007C0008B4C8A4D894EE4F54FF550AB4CAA4DA9A0
:1007D0004E120EBDC3E5509FE54F9E501DAB4CAA77
:1007E0004DA94E855082854F83120C4EFF120ED2BA
:0D07F0000550E55070D5054F80D1020EE494
:10080000020BC1E86480F8E933E83360110460F05A
:10081000ED33EC337009E8FCE9FDEAFEEBFF22045E
:1008200060DED3EB9FEA9EE99DE8C2E78CF0C2F759
:1008300095F0400CE8CCF8E9CDF9EACEFAEBCFFB25
:10084000120B8C85D0F05804700320D5B3E80470E7
:10085000075002B2D5020BCB92D5EC0460F7E4CC82
:10086000C0E0C398F8603B94186008400DD0E0FBEE
:10087000020BA3E4FBFAC9FC8028E830E406E4C9D3
:10088000FBE4CAFCE830E305E4C9CACBFCE8540742
:100890006010F8C3E913F9EA13FAEB13FBEC13FC4D
:1008A000D8F130F52FC3E49CFCEF9BFFEE9AFEEDF0
:1008B00099FDD0E0FBEF4E4D4C701222DB03020B92
:1008C000C8EC2CFCEF33FFEE33FEED33FDED30E7EB
:1008D000EB020BA3EF2BFFEE3AFEED39FDD0E0FB70
:1008E00050130BBB0003020BCBED13FDEE13FEEF19
:1008F00013FFEC13FC020BA3EC4D6011E8497017D9
:10090000ED33EC3304600DE4FCFFFEFD22E933E837
:10091000330470F8020BC1120B8C58046009E4CC4C
:1009200024815006285009020BCB284003020BC833
:10093000C0E0EB4A7044B98006D0E0FB020BB7EF91
:100940004E701CBD8008EBFFEAFEE9FD80EBE98DEF
:10095000F0A4FEE5F00209E1E9CDF9EAFEEBFFEFD4
:1009600089F0A4FCE5F0CE89F0A42EFFE435F0CDAB
:1009700089F0A42DFEE435F08067EF4E7005BD8050
:10098000D780C3EF8BF0A4ACF0EE8BF0A42CFCE48A
:1009900035F0F8EF8AF0A42CE5F038FCE433CB8D89
:1009A000F0A42CFCE5F03BF8EE8AF0A42CFCE5F07A
:1009B00038F8E433CF89F0A42CFCE5F038CF3400CC
:1009C000CE89F0A42FFFE5F03EFEE433C98DF0A4FC
:1009D0002EFEE5F039CD8AF0A42FFFE5F03EFEE4CF
:1009E0003DFD33D0E0FB50070BBB000F020BCBECFF
:1009F0002CFCEF33FFEE33FEED33FD020BA3020BB5
:100A0000CBEC5D046005E859047003020BC1120BC6
:100A10008C580460F6EC4860F2EC7004FDFEFF2296
:100A2000C860DB2481C85009C39860025006020BDD
:100A3000C89850CAF582E9294B4A7005AB82020B6F
:100A4000B775F0007C1A7880C3EF9BEE9AED994061
:100A50000DC3EF9BFFEE9AFEED99FDE842F0DC231B
:100A6000ACF0D0E0FFD0E0FED0E0FDAB8220E7109C
:100A70001BEB60BAEC2CFCEF33FFEE33FEED33FDE5
:100A8000020BA3E803F830E705C0F075F000EF2F84
:100A9000FFEE33FEED33FD40B830E7C280AA74F8B4
:100AA000CC6480CCC86480C8F58204604FC3EB9FDF
:100AB000F5F0EA9E42F0E99D42F0E89C45F0603C8A
:100AC000501DE5825FFFE582D313CB5BCBF42B5542
:100AD00082FB50280ABA002409B9002008801DE5CD
:100AE000825BFBE582D313CF5FCFF4C3132F558214
:100AF000FF50090EBE00050DBD00010CC3EB9FF5B4
:100B0000F0EA9E42F0E99D42F0E89C45F06007CC97
:100B10004820E701B3EC2275F020800E75F01080BC
:100B20000575F0087D007E007F003392D530D50337
:100B3000120CE5EC334010EF33FFEE33FEED33FDE6
:100B4000EC33FCD5F0ED22E5F0247EA2D513CC9257
:100B5000E7CDCEFF22EDD2E7CD33EC3392D5248121
:100B60004006E4FFFEFDFC22FCE4CFCECDCC24E029
:100B7000501174FF80EDC3CC13CCCD13CDCE13CE6A
:100B8000CF13CF0470F030D5DE020CE5E9D2E7C90F
:100B900033E833F892D5EDD2E7CD33EC33FC500295
:100BA000B2D522EC30E7100FBF000C0EBE00080DCE
:100BB000BD00040BEB6014A2D5EB13FCED92E7FD36
:100BC0002274FFFCFDFEFF22E480F8A2D574FF131F
:100BD000FC7D80E480EFED33EC33601004700FEDAA
:100BE000547F7005740292E0227404220422E422ED
:100BF000ED33EC33600A047003BD8004ECB2E7FC13
:100C000022C0E0EFFBEEFAEDF9ECF81208F8D0E0C4
:100C1000F5F0EFFBEEFAEDF9ECF8120CF3A3A3A359
:100C2000A3E8C0E0E9C0E0EAC0E0EBC0E0C0F01239
:100C300008F8120D03A3A3A3A3120807D0F0D0E075
:100C4000FBD0E0FAD0E0F9D0E0F8D5F0D422BB0137
:100C50000CE58229F582E5833AF583E0225006E926
:100C60002582F8E622BBFE06E92582F8E222E5822B
:100C700029F582E5833AF583E49322F8BB010DE57B
:100C80008229F582E5833AF583E8F0225006E925CA
:100C900082C8F622BBFE05E92582C8F222EF8DF05C
:100CA000A4A8F0CF8CF0A428CE8DF0A42EFE22C2F2
:100CB000D5EC30E709B2D5E4C39DFDE49CFCEE30F1
:100CC000E715B2D5E4C39FFFE49EFE120D52C3E4C4
:100CD0009DFDE49CFC8003120D5230D507C3E49FB8
:100CE000FFE49EFE22C3E49FFFE49EFEE49DFDE43C
:100CF0009CFC22E493FC740193FD740293FE740344
:100D000093FF22E493F8740193F9740293FA740345
:100D100093FB22D083D082F8E49370127401937015
:100D20000DA3A393F8740193F5828883E47374028E
:100D3000936860EFA3A3A380DFBB010689828A8347
:100D4000E0225002E722BBFE02E32289828A83E48A
:100D50009322BC000BBE0029EF8DF084FFADF02282
:100D6000E4CCF875F008EF2FFFEE33FEEC33FCEE29
:100D70009DEC984005FCEE9DFE0FD5F0E9E4CEFD1C
:100D800022EDF8F5F0EE8420D21CFEADF075F008EF
:100D9000EF2FFFED33FD4007985006D5F0F222C348
:100DA00098FD0FD5F0EA227F987E3A120E8F7F30A1
:100DB0007E00120EAB7F947E11120E8F7F307E006C
:100DC000120EAB7F2C7E01120E8F7F301E120EABE7
:100DD0007F8A7E02120E8F7F387E00120EAB7F0C50
:100DE0007E00120EAB120EA77F067E00020EABAB8A
:100DF00007AA06E4F570F9C3EA6480948050107C79
:100E0000FF7DFF120C9DAA06AB077F2D120ED27C30
:100E1000007D0AAF03AE02120CAFA907E9600624F9
:100E200030FF120ED2E975F00AA4FEC3EB9EF570F6
:100E30002430FF020ED28F6FE56FB44306120EA767
:100E40007F6522E56F642B601CE56F642D6016E5FD
:100E50006F64786010E56F642F600A7F017E001276
:100E60000E687F6522AF6F22AB07AA06120EA7EAB3
:100E70007005EB1460030480087BFF7A0F792180F2
:100E8000067BFF7A0F79151207C0227F107E27E4B8
:100E9000FDFCC3ED9FEE6480F8EC64809850070D74
:100EA000BD00010C80EC227F017E00C2B78FA0D272
:100EB000B67F967E00120E8FC2B6020E8FE4FFFE42
:100EC000120D39600C0FEF70010E09E970F20A8003
:100ED000EF22D2B78FA0D2B67F967E00120E8FC2BD
:100EE000B6020E8F7F027E00120EAB7FDC7E050203
:100EF0000E8FED33EC3360065004EC6480FC22E48A
:100F0000F5807590F0F5A0F5B0227F6EBF6E0512EA
:100F1000053580F82257726F6E6720496E707574C0
:100F20000057726F6E672046756E6374696F6E004E
:101564008B668A678968E4F569F56AED24FFF56C92
:10157400EC34FFF56BC3E56A956CE56B6480F8E5C4
:10158400696480985046AB66AA67A968856A8285B3
:101594006983120C4EFF3395E0F56D8F6E856C8276
:1015A400856B83120C4E856A82856983120C7B8558
:1015B4006C82856B83E56E120C7B056AE56A7002AA
:0D15C4000569E56C156C70AD156B80A922F2
:0C176600787FE4F6D8FD75817002000366
:00000001FF
